S00B0000434C4B2E737265633F
S113000019C033C032C031C030C017C12EC0F4C1D2
S11300102CC02BC02AC029C028C027C0C1C125C0FC
S113002024C023C022C021C020C01FC01EC01DC0C8
S11300301CC01BC011241FBECFEFD2E0DEBFCDBF5A
S113004011E0A0E0B1E0EAEDF4E002C005900D9209
S1130050A430B107D9F721E0A4E0B1E001C01D92BA
S1130060AA30B207E1F702D036C2CACF8FE387B90C
S113007088EF8AB9809100018BB9E8E6F0E08081CD
S113008084608083EDE6F0E080818760808383B5BF
S1130090826883BD84B5826084BD85B5826085BD78
S11300A08CE787BDEEE6F0E080818260808380810A
S11300B081608083E6EBF0E0808180628083E0EB06
S11300C0F0E0808182608083E1EBF0E080818660F3
S11300D080838FE78093B300E0E7F0E08081826063
S11300E0808380818160808383B58F7783BD78949A
S11300F083B7816083BF83B7817F866083BFE4E673
S1130100F0E0808181608083808180688083808149
S11301108860808380818260808380818F7D8083FA
S113012083B7816083BF889583B78E7F83BF8091B7
S113013005018111FCCF83B7817F866083BF83B7BC
S1130140816083BF889583B78E7F83BFF0CF209172
S1130150080130E08091050190E0AC01440F551F87
S1130160440F551F840F951F0497281739072CF047
S113017080910501833009F051C0809105018823E5
S113018009F44CC083B78E7F83BF809102018093B2
S1130190090180910901282F22952F70909109015E
S11301A030E1939FC0011124822B80930901809137
S11301B009018C7C90E09C01359527953595279510
S11301C0909109019373892F90E0880F991F880FEC
S11301D0991F822B80930901809109018A7A90E00A
S11301E09C0135952795909109019575892F90E08B
S11301F0880F991F822B80930901809109018695AC
S1130200869588B98091010190E0880F991F880F25
S1130210991F880F991F87608BB9089583B78E7FC4
S113022083BF80910601813009F018B880910601DE
S1130230823011F087E08BB908951F920F920FB6A8
S11302400F9211242F935F936F937F938F939F93B8
S1130250AF93BF93EF93FF9329B1809100012827B7
S113026089B1809300018091040190E0019681702E
S11302709078992324F401978E6F9F6F0196809351
S113028004018091040181117CC020FF30C0809161
S11302900601813099F018F08230E9F028C080918D
S11302A0050190E0019783709078992324F40197D5
S11302B08C6F9F6F01968093050119C08091010195
S11302C081508093010180910101893180F087E19F
S11302D0809301010CC0809102018150809302013E
S11302E0809102018D3318F08BE38093020121FF8A
S11302F03DC080910601813011F118F0823059F12E
S113030035C08091050190E001968370907899231F
S113031024F401978C6F9F6F01968093050180915F
S11303200501833031F4E4E6F0E08081806280836B
S11303301DC0E4E6F0E080818F7D808317C080914A
S113034001018F5F8093010180910101883171F473
S1130350109201010BC0809102018F5F8093020112
S1130360809102018C3311F41092020122FF09C022
S11303708091060190E0019663E070E085D080935F
S11303800601FF91EF91BF91AF919F918F917F9162
S11303906F915F912F910F900FBE0F901F90189542
S11303A01F920F920FB60F9211242F933F934F93E6
S11303B05F936F937F938F939F93AF93BF93EF93C9
S11303C0FF938091080190E0019667E170E05CD0B2
S11303D080930801BCDEFF91EF91BF91AF919F9193
S11303E08F917F916F915F914F913F912F910F90DA
S11303F00FBE0F901F9018951F920F920FB60F9279
S113040011242F933F934F935F936F937F938F9315
S11304109F93AF93BF93EF93FF93809107018F5FF7
S113042080930701809107018C33C0F0109207017B
S1130430809102018F5F80930201809102018C33CD
S113044068F010920201809101018F5F8093010195
S113045080910101883110F01092010195B181E081
S1130460892785B974DEFF91EF91BF91AF919F9178
S11304708F917F916F915F914F913F912F910F9049
S11304800FBE0F901F90189597FB072E16F400943B
S113049006D077FD08D00BD007FC05D03EF490952C
S11304A081959F4F0895709561957F4F0895AA1B7C
S11304B0BB1B51E107C0AA1FBB1FA617B70710F04B
S11304C0A61BB70B881F991F5A95A9F7809590957D
S10D04D0BC01CD010895F894FFCF9C
S10704DA07071E00EE
S9030000FC
